:100000000C947F000C949E0D0C94CB0D0C94A700C7
:100010000C94A7000C94A7000C94A7000C94A700C4
:100020000C94A7000C94A7000C94A7000C94A700B4
:100030000C94A7000C94A7000C94A7000C94A700A4
:100040000C94F80D0C94A7000C94440B0C94A7008E
:100050000C94A7000C94A7000C94A7000C94A70084
:100060000C94A7000C94A700A8073309B607C00793
:10007000CB07D707E3075A086E0881089408C10820
:10008000DC08E208EF080209140918091B09200915
:10009000200986092D098609330936095A09000005
:1000A0000000240027002A0000000000250028008E
:1000B0002B00000000002300260029000404040493
:1000C0000404040402020202020203030303030302
:1000D00001020408102040800102040810200102DF
:1000E00004081020000000070002010000030406BD
:1000F000000000000000000089073B0B390C1124B0
:100100001FBECFEFD4E0DEBFCDBF11E0A0E0B1E075
:10011000E6E1F5E202C005900D92A236B107D9F7EB
:1001200012E0A2E6B1E001C01D92A13BB107E1F7E8
:1001300010E0CEEFD0E004C02297FE010E948512AD
:10014000C83FD107C9F70E94A2030C9489120C94EE
:100150000000F999FECF72BD61BDF89A80B508958F
:10016000F999FECF1FBA72BD61BD40BD0FB6F894BC
:10017000FA9AF99A0FBE0895FC0110828FEF8183DD
:100180000895EF92FF920F931F93CF93DF93EC01AB
:100190009B0177FF03C020E030E005C0653B71059F
:1001A00014F024EB30E02983EA806B8170E06E1953
:1001B0007109882777FD8095982F982F872F762FA4
:1001C000662730E040E050E00E94001224EB30E06F
:1001D00040E050E00E945412FF2400E010E0102F95
:1001E0000F2DFE2CEE24E20EF31E041F151FC80176
:1001F000B70128E030E040E050E00E9454128881CE
:10020000893029F4309389002093880006C08A3011
:1002100021F430938B0020938A00DF91CF911F91BE
:100220000F91FF90EF900895CF93DF93EC018881B9
:10023000893059F410926301809180008F7380930C
:10024000800089E060E00E94290F88818A3059F49B
:1002500010926401809180008F7C809380008AE0FE
:1002600060E00E94290FDF91CF910895CF93DF9333
:10027000EC01FB01CB010997029710F080E054C01C
:10028000CA0160E170E00E941F126A83C90160E147
:1002900070E00E941F126B83E8838FEF89838E2F9B
:1002A00060E00E94490F888161E00E94290F8091DF
:1002B0006301882311F5809164018823F1F42FB73D
:1002C000F89482E0809380008AE18093810088EB3B
:1002D0009BE0909389008093880090938B0080939B
:1002E0008A0080E49CE99093870080938600809147
:1002F0006F00887F80936F002FBF8881893041F421
:1003000081E080936301809180008F73806809C0D1
:100310008A3049F481E080936401809180008F7C71
:1003200080628093800081E0DF91CF91089540E268
:1003300052E020E639E00E9436010895DC01139670
:100340001C92139708C0FD01E80FF11D14828F5F06
:1003500013968C93139713968C911397803298F37E
:1003600095961C92959708C0FD01E80FF11D16A205
:100370008F5F95968C93959795968C9195978032F3
:1003800098F311961C921E92A95BBF4F81E090E0FA
:1003900011969C938E93A754B04012961C9212977C
:1003A00013961C92139794961C92949795961C9270
:1003B0009597AA5BBF4F1C920895FC01E75BFF4F26
:1003C00071836083E954F040CF010E949E0108953B
:1003D000CF93DF93EC01288139812115310541F458
:1003E000653D09F046C00E949E0181E090E03FC05B
:1003F0002130310561F46A831B8282E090E09983A9
:100400008883613208F435C0C95BDF4F2EC02230CB
:100410003105F9F49B818A819817A0F48CA1862775
:1004200028E03CE880FB86950EF483272A95D1F7D7
:100430008CA3903220F4FE01E90FF11D64838B81BF
:100440008F5F8B839B818A81981798F083E090E07F
:100450000EC02330310569F48CA1861731F0C95BD9
:10046000DF4F39832883C754D04084E090E09983DC
:100470008883DF91CF910895FC0120E080819181F4
:10048000049709F421E0822F0895FC01E95BFF4FF6
:1004900082E090E09183808308956F927F928F92A3
:1004A0009F92AF92BF92DF92EF92FF920F931F93B2
:1004B000CF93DF93EC0196E4A92EB12CAC0EBD1EB8
:1004C0008E01095B1F4FD8019C9180E0892798E03D
:1004D0002CE880FB86950EF482279A95D1F7F501DA
:1004E000808389E4E82EF12CEC0EFD1ED701ED91FE
:1004F000FC9185ED09958DA1D701ED91FC918F5F60
:100500000995D701ED91FC91D8018C910995DD24D5
:10051000450137011AC08E010D0D111DD301ED915A
:10052000FC91D80196968C910995F4018081D801AF
:1005300096969C91892798E02CE880FB86950EF48E
:1005400082279A95D1F78083D3948DA1D81618F37A
:10055000D701ED91FC91D5018C910995CE010E94B6
:100560009E01DF91CF911F910F91FF90EF90DF904F
:10057000BF90AF909F908F907F906F900895DC0117
:10058000952F95968C919597803240F4FD01E80F58
:10059000F11D46A38F5F95968C93959795968C91B8
:1005A0009597803240F4FD01E80FF11D96A38F5F0F
:1005B00095968C939597AB0166277727952F9596FF
:1005C0008C919597803240F4FD01E80FF11D46A310
:1005D0008F5F95968C93959795968C919597803291
:1005E00038F4FD01E80FF11D96A38F5F95968C936B
:1005F0000895DC0195968C919597803240F4FD0129
:10060000E80FF11D66A38F5F95968C93959795964D
:100610008C919597803238F4FD01E80FF11D76A397
:100620008F5F95968C930895DC0195968C919597A4
:10063000803238F4FD01E80FF11D66A38F5F9596B7
:100640008C930895FC01E60FF11D84810895FC014F
:100650006F5FDC01A60FB11D615014969C9180E084
:10066000E60FF11D248130E0282B392BC9010895B4
:100670000F931F938C01862F8E5F6D5FF801E60F3D
:10068000F11D348120E0F801E80FF11D848190E034
:10069000282B392B40E050E0A90133272227625054
:1006A000F801E60FF11D6150948180E0060F111DE5
:1006B000F801648170E0862B972BA0E0B0E0282B36
:1006C000392B4A2B5B2BB901CA011F910F91089559
:1006D0000E9499098091EA01882311F00E94D004B8
:1006E0008091B201882321F483EB91E00E94680796
:1006F000089584E061E00E94290F80E161E00E949A
:10070000290F84E060E00E94490F82E992E040E016
:1007100056E960E070E00E94810B08958DE061E091
:100720000E94290F8DE060E00E94490F1092B201F3
:100730000E94800A0E94340508950E9479030E9455
:100740008E0308950E94780E0E949D030E94680304
:10075000FDCF82E691E060E070E00E94A9008A355A
:1007600011F090E00AC082E691E061E070E00E9442
:10077000A90090E0883709F491E0892F089583EB70
:1007800091E00E940B0608958FE060E00E94490FFF
:1007900008958FE061E00E94490F08958091ED0176
:1007A0009091EE01009731F486E060E070E00E94E5
:1007B000D00E0895019731F41092030210920202B4
:1007C0000E949F0A08958091DD019091DE010097BB
:1007D00079F485E060E070E00E94D00E8091DF0146
:1007E0009091E001892BD1F481E08093EA01089592
:1007F0008130910539F410920302109202020E9496
:100800009F0A0895029751F40E949F0A85E060E0D4
:100810000E94490F86E060E00E94490F0895809190
:10082000ED019091EE010097A1F48091EF0190917C
:10083000F001892B19F488E061E002C088E060E0F3
:100840000E94490F6091F10186E070E00E94D00E95
:1008500008950197C1F41092030210920202609170
:10086000F2017091F3018091F4019091F50120E182
:1008700030E040E050E00E945412CA01B9010E94E9
:10088000F30A0E94990A08958091DD019091DE019A
:100890000097B1F41092EA018091DF019091E0019C
:1008A000892B19F487E061E002C087E060E00E94D4
:1008B000490F6091E10185E070E00E94D00E08953B
:1008C0008130910599F410920302109202020E9465
:1008D0009F0A6091E2017091E3018091E40190919F
:1008E000E5010E94F30A0E94990A0895029761F4B3
:1008F000609108027091090280910A0290910B02A6
:100900000E94F30A0E94990A0895FF920F931F9381
:10091000CF93DF938C01F62E8091EA018823D1F1E9
:10092000C0E0D0E034C061E070E080E090E00E9480
:100930004E0E21E0F21631F48091EB019091EC0122
:10094000019608C082E0F81649F48091EB0190917D
:10095000EC0101979093EC018093EB018091EB0106
:100960009091EC0197FF02C080E090E021E08D3291
:10097000920714F08CE291E09093EC018093EB01EC
:100980000E9499098091EA01882321F02196C017DD
:10099000D10748F2DF91CF911F910F91FF900895F9
:1009A00085E090E060E00E9485048091EA01882360
:1009B00079F087E060E00E94490F6091E10185E0F5
:1009C00070E00E94D00E8CE291E061E00E9485040C
:1009D0008091EA01882329F085E090E060E00E94A0
:1009E00085048091EA01882379F087E061E00E9424
:1009F000490F6091E10185E070E00E94D00E8CE229
:100A000091E062E00E9485041092EC011092EB01EB
:100A10008091EA01882329F085E060E070E00E947F
:100A2000D00E1092EA01089582E00E94960F01977D
:100A300031F483E00E94960F892B31F40BC083E0E0
:100A40000E94960F892B31F480910202909103024B
:100A5000019705C080910202909103020196909344
:100A600003028093020208950F931F931092DE01F8
:100A70001092DD011092E0011092DF011092E1016D
:100A80001092E2011092E3011092E4011092E5014C
:100A90001092E6011092E7011092E8011092E9012C
:100AA0001092EE011092ED011092F0011092EF0100
:100AB0001092F1011092F2011092F3011092F401E0
:100AC0001092F5011092F6011092F7011092F801C0
:100AD0001092F9018AEF91E00E9414018EEF91E0EB
:100AE0000E94140110920302109202021092050259
:100AF00010920402109207021092060281E090E028
:100B0000909351018093500184E690E090935301BB
:100B1000809352018AE090E09093550180935401B4
:100B200003EB11E0C80163E070E04BE050E020E02F
:100B30000E9402078BE061E00E94290F82E060E0E2
:100B40000E94290F83E060E00E94290F82E061E0AB
:100B50000E94490F83E061E00E94490F80E064E158
:100B600075E041E050E00E947B0D85E061E00E946D
:100B7000290F86E061E00E94290F87E061E00E9472
:100B8000290F88E061E00E94290F85E060E00E9463
:100B9000490F86E060E00E94490F87E061E00E9413
:100BA000490F88E061E00E94490F8BE061E00E94FC
:100BB000290F8BE060E00E94490F8FE061E00E9406
:100BC000290F8FE060E00E94490F8DE061E00E94F4
:100BD000290FC80160E070E00E94F1051F910F919C
:100BE00008950F931F938C01FC01708767838827FA
:100BF00077FD8095982F0E94E9102DEC3CEC4CE895
:100C00005FE30E949D110E94B610F8017287618710
:100C10001F910F910895FF920F931F938C01FF2452
:100C2000FC0167817085882777FD8095982F0E9449
:100C3000E91023E333E343E75FE30E949D110E9441
:100C4000B610F801258136816217730714F4FF246A
:100C5000F3948F2D1F910F91FF9008952F923F9243
:100C60004F925F926F927F928F929F92AF92BF92BC
:100C7000CF92DF92EF92FF920F931F93CF93DF9368
:100C8000EC018B85882309F482C06F8078848D8184
:100C90009E81681A790A288839884A885B88B30156
:100CA000882777FD8095982F2E8D3F8D48A159A1DB
:100CB000620F731F841F951F6E8F7F8F88A399A368
:100CC0000E94E9107B018C01AEA0BFA0C8A4D9A4EA
:100CD000A60195010E944A10882364F0AAA0BBA037
:100CE000CCA0DDA0C801B701A60195010E94991111
:100CF00018161CF4C601B50102C0C801B7010E9454
:100D0000B6106E8F7F8F88A399A30E94E9102C895B
:100D10003D894E895F890E949D114B015C010D81C7
:100D20001E818C8D9D8DB801681B790B882777FDFE
:100D30008095982F0E94E910288D398D4A8D5B8D02
:100D40000E949D116B017C011D8F0C8FB3018827C0
:100D500077FD8095982F0E94E9109B01AC01C2019C
:100D6000B1010E949D11A50194010E94E60FA70107
:100D700096010E94E50F0E94B610CB016F3F7105EE
:100D800019F014F08FEF90E09C0197FF02C020E073
:100D900030E0C901DF91CF911F910F91FF90EF904B
:100DA000DF90CF90BF90AF909F908F907F906F908B
:100DB0005F904F903F902F9008950F931F938C0159
:100DC00060E070E08CED92ECF80124893589468969
:100DD00057890E944E10F80166A377A380A791A7B8
:100DE00060E070E08CED92E424893589468957896A
:100DF0000E944E10F80162A373A384A395A31F91D0
:100E00000F9108950F931F938C01FC01208372832F
:100E100061835483438381E08387168E178E10A2EB
:100E200011A2158E148E80E090E0A0EAB0E4808BD1
:100E3000918BA28BB38B8DEC9CECACECBDE3848BE3
:100E4000958BA68BB78B80E090E0A8ECB2E4808F06
:100E5000918FA28FB38FC8010E94DD06F801168220
:100E6000158210861782128611861F910F910895A0
:100E7000EF92FF921F93CF93DF937C01C0E0D0E00D
:100E800010E0F70181810E94B20EC80FD91F1F5FC9
:100E90001530B9F7CE0165E070E00E941F12CB015A
:100EA000DF91CF911F91FF90EF9008950E94380736
:100EB0000E94330A0895FC018081882319F020E004
:100EC00030E004C0CF010E9456079C01C90108957B
:100ED000CF93DF93EC010E945B079E838D830E947A
:100EE000400E9B01AC018C859D85B901681B790B77
:100EF000693C71055CF02C873D874E875F87CE018A
:100F00000E942E06BC018B810E94D00EDF91CF91F2
:100F1000089585E691E064EF79E00E94DD0108958F
:100F2000FF920F931F93CF93DF9385E691E061E0EB
:100F30000E942203E82FF0E0EB31F10508F0E6C152
:100F4000EC5CFF4FEE0FFF1F0590F491E02D09942C
:100F500085E691E062E00E9427039093B1018093BF
:100F6000B00185E691E06CE670E007C083EB91E0AC
:100F70000E945B07BC0185E691E00E94F902C6C1B0
:100F800085E691E062E00E942703BC0183EB91E0DB
:100F90000E94F105BBC11092DE011092DD0185E6D1
:100FA00091E062E00E9422038093E101AFC11092C0
:100FB000EE011092ED0185E691E062E00E942203CD
:100FC0008093F101A3C185E691E062E00E943803BD
:100FD00024E0660F771F881F991F2A95D1F7609329
:100FE000E2017093E3018093E4019093E50182E0D4
:100FF00090E09093DE018093DD016091E2017091B9
:10100000E3018091E4019091E50120E931E040E0C5
:1010100050E00E945412C901DA01809308029093B3
:101020000902A0930A02B0930B028091E101809320
:101030000C026091E10170E080E090E00E94E71016
:101040002DEC3CEC4CEC5EE30E949D1120E030E086
:1010500040E050E00E9499118823A4F06091E101E2
:1010600070E080E090E00E94E7102DEC3CEC4CEC4E
:101070005EE30E949D1120E030E040E05FE30E94CB
:10108000E60F13C06091E10170E080E090E00E9403
:10109000E7102DEC3CEC4CEC5EE30E949D1120E04F
:1010A00030E040E05FE30E94E50F0E94B6106093DD
:1010B0000D022CC181E090E09093EE018093ED0150
:1010C00085E691E062E00E9438036093F20170933C
:1010D000F3018093F4019093F50118C185E691E046
:1010E00062E00E94220380FF05C01092E00110928E
:1010F000DF010CC181E090E09093E0018093DF017B
:1011000005C185E691E062E00E94220380FF05C0F0
:101110001092F0011092EF01F9C081E090E09093FD
:10112000F0018093EF01F2C085E691E062E00E9459
:101130002203282F81FF05C01092E0011092DF01E9
:1011400006C081E090E09093E0018093DF0120FFF2
:1011500015C00E9444042091EB013091EC0112165D
:1011600013063CF4B901882777FD8095982F0E94DB
:101170004E0E1092EC011092EB01C8C00E94E303E6
:10118000C5C085E691E062E00E942203282F81FF1E
:1011900005C01092F0011092EF0106C081E090E0CE
:1011A0009093F0018093EF0120FF03C00E940F0491
:1011B000ADC00E94CE03AAC085E691E062E00E9425
:1011C0002203A4C085E691E062E00E94220380FF32
:1011D00003C00E94C9039AC00E94C40397C08DE057
:1011E00061E00E94490F8AEF91E069E070E00E949F
:1011F000970185E691E062E00E942203682F8AEF62
:1012000091E00EC08EEF91E06AE070E00E949701DD
:1012100085E691E062E00E942203682F8EEF91E064
:1012200070E00E94C10072C085E691E06FEF6CC073
:101230006091E10115C085E691E06091F10164C023
:101240004091E6015091E7016091E8017091E90158
:1012500085E691E00E94BF0259C00E94BF03682F3B
:1012600085E691E051C00E948E0350C085E691E072
:1012700062E00E942703F82E192F85E691E064E0D2
:101280000E942203082F813140F58F2D912F9C0160
:10129000E9010BC082E691E0BE010E94A900682F1F
:1012A00085E691E00E94140321969E012F192017D4
:1012B00088F32CC085E691E062E00E942703EC01F0
:1012C00085E691E064E00E942203082F813128F432
:1012D00015E085E0F82EF00E12C085E691E00E9440
:1012E000450214C085E691E0612F0E942203482F39
:1012F00082E691E0BE010E94B0001F5F21961F159B
:1013000089F785E691E0602F0E941403DF91CF9169
:101310001F910F91FF90089580E161E00E94490FB5
:1013200085E691E00E944D0280E160E00E94490F55
:101330000895EF92FF920F931F9382E992E00E942B
:10134000EA0B882309F44BC00E94400E7B018C01FC
:1013500084E690E0A0E0B0E0E80EF91E0A1F1B1F33
:1013600022C082E992E00E94EA0B8823A9F082E978
:1013700092E00E94FE0B682F85E691E00E94E80152
:101380000E94400E7B018C0184E690E0A0E0B0E07A
:10139000E80EF91E0A1F1B1F0E94400E6E157F05E6
:1013A00080079107E0F485E691E00E943C028823E3
:1013B000C1F285E691E00E943C02882361F085E657
:1013C00091E060E00E942203882329F40E949007A4
:1013D0000E948C0904C085E691E00E949E011F9145
:1013E0000F91FF90EF900895CF92DF92EF92FF92CE
:1013F0000F931F93CF93DF93182F482F50E060E097
:1014000070E082E992E020E030E00E94660D0E94E8
:10141000400E6B017C018AE090E0A0E0B0E0C80ED5
:10142000D91EEA1EFB1E82E992E00E94FE0BEC012F
:10143000012F10E00CC082E992E00E94FE0BEC014B
:101440000E94400EC616D706E806F90618F0C01727
:10145000D10789F7DF91CF911F910F91FF90EF9006
:10146000DF90CF900895CF93DF93AC01E4E0F1E0FB
:10147000C1E0D0E060817181461757077CF5FE011D
:101480003197EE0FFF1FEE0FFF1FDF01A050BF4F80
:101490002D913C91EE5FFE4F0190F081E02D421BBB
:1014A000530BCC0FDD1FCC0FDD1FCE5FDE4F8881CD
:1014B00099818E1B9F0B621B730B9C01429FC00185
:1014C000439F900D529F900D11240E941F126E0F8A
:1014D0007F1F6F3F710581F07CF009C09E012F5F77
:1014E00021963496C431D10529F6243119F46FEFD1
:1014F00070E002C060E070E0CB01DF91CF91089511
:10150000CF93DF930E94A903882381F0C1E0D1E04B
:1015100082E691E0BE010E94A900FE01E050F04089
:101520008083219681E0C035D80791F7DF91CF9174
:101530000895EFE6F0E08081826080830895EFE611
:10154000F0E080818F7D808380818D7F808308950E
:10155000603020E0720721E0820720E0920708F463
:1015600040C0693F2FEF720727E0820720E0920713
:1015700040F453E096958795779567955A95D1F7FE
:1015800030C0613C2FEF72072FE3820720E0920703
:1015900040F446E096958795779567954A95D1F7FB
:1015A00020C061302FEF72072FEF820720E09207F3
:1015B00030F4BB27A92F982F872FBC0112C06130B0
:1015C0002CEF72072FEF820723E0920718F06FEFDE
:1015D0007FEF07C02AE096958795779567952A95BE
:1015E000D1F7CB010895EF92FF920F931F937B01E8
:1015F0008C010E94A80A909389008093880080E063
:10160000E81680E0F80681E0080780E0180710F48B
:1016100091E022C089EFE8168FEFF80687E008070F
:1016200080E0180710F492E017C081ECE8168FEF05
:10163000F8068FE3080780E0180710F493E00CC069
:1016400081E0E8168FEFF8068FEF080780E01807B3
:1016500010F095E001C094E080918100887F809334
:10166000810080918100982B909381001F910F91B0
:10167000FF90EF9008958AEF91E00E94BC008EEFFA
:1016800091E00E94BC0008951F920F920FB60F9236
:1016900011242F933F934F935F936F937F938F9377
:1016A0009F93AF93BF93EF93FF934091C600E09158
:1016B0008E02F0918F02CF01019660E870E00E94E7
:1016C0001F129C0180919002909191022817390776
:1016D00039F0E25FFD4F408330938F0220938E02FA
:1016E000FF91EF91BF91AF919F918F917F916F91FA
:1016F0005F914F913F912F910F900FBE0F901F90D0
:101700001895AF92BF92CF92DF92EF92FF920F9314
:101710001F93CF93DF936C017A018B01DC01149648
:10172000AD90BC901597CB01BA0122E030E040E0CB
:1017300050E00E945412205C3D4B404F5F4FCA0165
:10174000B901A80197010E945412C901DA01019759
:10175000A109B109292F3A2F4B2F552747FD5A953B
:101760000196A11DB11DE5012883E601EE81FF81EF
:1017700081508083EA85FB85208141E050E0CA01E9
:101780000E8402C0880F991F0A94E2F7282B208349
:10179000EA85FB852081CA010F8402C0880F991F4A
:1017A0000A94E2F7282B2083EA85FB85808108884C
:1017B00002C0440F551F0A94E2F7842B8083DF9107
:1017C000CF911F910F91FF90EF90DF90CF90BF903E
:1017D000AF900895DC011296ED91FC911397E058BB
:1017E000FF4F8191919180589F4F20813181821BC1
:1017F000930B60E870E00E941F120895CF93DF936F
:10180000DC011296ED91FC911397EF01CE57DF4F5B
:1018100048815981E058FF4F80819181E058F04024
:101820008417950719F42FEF3FEF0CC0E40FF51F55
:101830002081CA01019660E870E00E941F1299831E
:10184000888330E0C901DF91CF910895FC01A08524
:10185000B18521898C9190E0022E02C095958795E3
:101860000A94E2F780FFF6CF0484F585E02D6083CB
:1018700008958BE591E090939302809392028EE01D
:1018800092E0909395028093940285EC90E090937F
:1018900097028093960284EC90E090939902809353
:1018A000980280EC90E090939B0280939A0281ECE6
:1018B00090E090939D0280939C0286EC90E0909340
:1018C0009F0280939E0284E08093A00283E0809335
:1018D000A10287E08093A20285E08093A30208958D
:1018E0000F931F93CF93DF938C01EB0109C02196D7
:1018F000D801ED91FC910190F081E02DC80109958E
:1019000068816623A1F7DF91CF911F910F91089510
:10191000EF92FF920F931F93CF93DF938C017B0184
:10192000EA010CC0D7016D917D01D801ED91FC91C8
:101930000190F081E02DC80109952197209791F73A
:10194000DF91CF911F910F91FF90EF9008952F920B
:101950003F924F925F926F927F928F929F92AF923F
:10196000BF92CF92DF92EF92FF920F931F93DF937C
:10197000CF93CDB7DEB7A0970FB6F894DEBF0FBEFA
:10198000CDBF1C016A017B0141155105610571053F
:1019900049F4DC01ED91FC910190F081E02D60E3D0
:1019A000099554C0882499245401422E5524662454
:1019B000772401E010E00C0F1D1F080D191DC70151
:1019C000B601A30192010E943212F80160830894CB
:1019D000811C911CA11CB11CC701B601A30192017D
:1019E0000E943212C901DA016C017D01C114D104D7
:1019F000E104F104F1F681E0E82EF12CEC0EFD1E7D
:101A0000E80CF91C3E010894611C711CD501C4014D
:101A10000197A109B1096C01C818D90814C0F601D1
:101A2000EE0DFF1D60816A3010F4605D01C0695CDD
:101A3000D101ED91FC910190F081E02DC10109955A
:101A40000894E108F1086E147F0449F7A0960FB6D8
:101A5000F894DEBF0FBECDBFCF91DF911F910F91E4
:101A6000FF90EF90DF90CF90BF90AF909F908F90BE
:101A70007F906F905F904F903F902F900895EF92DE
:101A8000FF920F931F93CF93DF93EC017A018B01A9
:101A900077FF0FC0E881F9810190F081E02D6DE2C0
:101AA000099510950095F094E094E11CF11C011D3E
:101AB000111DCE01B801A7012AE00E94A70CDF91F9
:101AC000CF911F910F91FF90EF900895DC012115A8
:101AD000310541F4ED91FC910190F081E02D642FEE
:101AE000099508952A30310519F40E943F0D089593
:101AF0000E94A70C0895823000F5E82FF0E0EE0F69
:101B0000FF1FEC55FD4F71836083882319F08130EE
:101B1000A1F408C0809169008C7F842B80936900B8
:101B2000E89A089580916900440F551F440F551F8E
:101B3000837F842B80936900E99A08951F920F9206
:101B40000FB60F9211242F933F934F935F936F9390
:101B50007F938F939F93AF93BF93EF93FF93809166
:101B6000A4029091A502892B29F0E091A402F091A2
:101B7000A5020995FF91EF91BF91AF919F918F9130
:101B80007F916F915F914F913F912F910F900FBE79
:101B90000F901F9018951F920F920FB60F9211245D
:101BA0002F933F934F935F936F937F938F939F9365
:101BB000AF93BF93EF93FF938091A6029091A702FA
:101BC000892B29F0E091A602F091A7020995FF91D7
:101BD000EF91BF91AF919F918F917F916F915F91A5
:101BE0004F913F912F910F900FBE0F901F9018951E
:101BF0001F920F920FB60F9211242F933F938F9342
:101C00009F93AF93BF938091AC029091AD02A0914E
:101C1000AE02B091AF023091B0020196A11DB11D8C
:101C2000232F2D5F2D3720F02D570196A11DB11DBB
:101C30002093B0028093AC029093AD02A093AE02C9
:101C4000B093AF028091A8029091A902A091AA023C
:101C5000B091AB020196A11DB11D8093A802909393
:101C6000A902A093AA02B093AB02BF91AF919F913A
:101C70008F913F912F910F900FBE0F901F9018954D
:101C80008FB7F8942091AC023091AD024091AE0232
:101C90005091AF028FBFB901CA010895EF92FF9230
:101CA0000F931F937B018C018FB7F8944091AC0286
:101CB0005091AD026091AE027091AF028FBF2FB70D
:101CC000F8948091AC029091AD02A091AE02B091D7
:101CD000AF022FBF841B950BA60BB70BE816F906B6
:101CE0000A071B0760F71F910F91FF90EF9008956F
:101CF000789484B5826084BD84B5816084BD85B5E7
:101D0000826085BD85B5816085BDEEE6F0E08081AD
:101D100081608083E1E8F0E080818260808380815F
:101D200081608083E0E8F0E0808181608083E1EB86
:101D3000F0E0808184608083E0EBF0E0808181606E
:101D40008083EAE7F0E08081846080838081826024
:101D5000808380818160808380818068808310920D
:101D6000C10008958770909156019295990F990F2F
:101D7000907C982B90937C0080917A008064809373
:101D80007A0080917A0086FDFCCF20917800409106
:101D90007900942F80E030E0282B392BC901089579
:101DA0001F93CF93DF93182FEB0161E00E94290F5F
:101DB000E12FF0E0EC51FF4F8491833051F480919A
:101DC0008000806880938000D0938900C093880051
:101DD0003CC0843051F48091800080628093800008
:101DE000D0938B00C0938A0030C0813039F42097A3
:101DF00029F184B5806884BDC7BD27C0823039F41D
:101E00002097E1F084B5806284BDC8BD1EC08630D5
:101E100041F48091B00080688093B000C093B3001B
:101E200014C0873041F48091B00080628093B0008C
:101E3000C093B4000AC0C038D1051CF4812F60E003
:101E400002C0812F61E00E94490FDF91CF911F9165
:101E50000895282F30E0C90180539F4FFC019491D1
:101E600024543F4FF9018491882391F0E82FF0E04A
:101E7000EE0FFF1FE256FF4FA591B491662329F4A0
:101E80008C91909589238C9308958C91892B8C93B8
:101E90000895482F50E0CA018C519F4FFC012491B6
:101EA000CA0180539F4FFC01949144545F4FFA0143
:101EB00034913323D1F1222331F1233021F4809165
:101EC00080008F7705C0243031F4809180008F7DB1
:101ED0008093800018C0213019F484B58F7704C036
:101EE000223021F484B58F7D84BD0DC0263021F4CD
:101EF0008091B0008F7705C0273029F48091B00021
:101F00008F7D8093B000E32FF0E0EE0FFF1FE855C8
:101F1000FF4FA591B491662329F48C919095892364
:101F20008C9308958C91892B8C930895682F70E081
:101F3000CB018C519F4FFC012491CB0180539F4FCB
:101F4000FC01449164547F4FFB019491992319F44F
:101F500020E030E038C0222331F1233021F4809199
:101F600080008F7705C0243031F4809180008F7D10
:101F70008093800018C0213019F484B58F7704C095
:101F8000223021F484B58F7D84BD0DC0263021F42C
:101F90008091B0008F7705C0273029F48091B00080
:101FA0008F7D8093B000892F90E0880F991F8E5409
:101FB0009F4FFC01A591B4918C9120E030E08423E7
:101FC00011F021E030E0C90108955058BB27AA273D
:101FD0000ED075C166D130F06BD120F031F49F3F47
:101FE00011F41EF45BC10EF4E095E7FB51C1E92F3B
:101FF00077D180F3BA17620773078407950718F043
:1020000071F49EF58FC10EF4E0950B2EBA2FA02D22
:102010000B01B90190010C01CA01A0011124FF2795
:10202000591B99F0593F50F4503E68F11A16F04090
:10203000A22F232F342F4427585FF3CF469537958F
:102040002795A795F0405395C9F77EF41F16BA0B54
:10205000620B730B840BBAF09150A1F0FF0FBB1F02
:10206000661F771F881FC2F70EC0BA0F621F731F4B
:10207000841F48F4879577956795B795F7959E3FA8
:1020800008F0B3CF9395880F08F09927EE0F979536
:1020900087950895D9D008F481E008950CD00FC138
:1020A00007D140F0FED030F021F45F3F19F0F0C0CE
:1020B000511139C1F3C014D198F39923C9F35523B1
:1020C000B1F3951B550BBB27AA276217730784072B
:1020D00038F09F5F5F4F220F331F441FAA1FA9F3E1
:1020E00033D00E2E3AF0E0E830D091505040E695D3
:1020F000001CCAF729D0FE2F27D0660F771F881F34
:10210000BB1F261737074807AB07B0E809F0BB0B22
:10211000802DBF01FF2793585F4F2AF09E3F510546
:1021200068F0B6C000C15F3FECF3983EDCF38695E3
:1021300077956795B795F7959F5FC9F7880F911DBC
:102140009695879597F90895E1E0660F771F881FA8
:10215000BB1F621773078407BA0720F0621B730B5B
:10216000840BBA0BEE1F88F7E095089504D06894AD
:10217000B111D9C00895BCD088F09F5790F0B92F05
:102180009927B751A0F0D1F0660F771F881F991FCC
:102190001AF0BA95C9F712C0B13081F0C3D0B1E0DE
:1021A0000895C0C0672F782F8827B85F39F0B93FEE
:1021B000CCF3869577956795B395D9F73EF49095CE
:1021C0008095709561957F4F8F4F9F4F0895E8944C
:1021D00009C097FB3EF490958095709561957F4F6F
:1021E0008F4F9F4F9923A9F0F92F96E9BB2793951D
:1021F000F695879577956795B795F111F8CFFAF42D
:10220000BB0F11F460FF1BC06F5F7F4F8F4F9F4F5D
:1022100016C0882311F096E911C0772321F09EE8BB
:10222000872F762F05C0662371F096E8862F70E021
:1022300060E02AF09A95660F771F881FDAF7880FFB
:102240009695879597F90895990F0008550FAA0B51
:10225000E0E8FEEF16161706E807F907C0F01216B9
:102260001306E407F50798F0621B730B840B950BBC
:1022700039F40A2661F0232B242B252B21F4089511
:102280000A2609F4A140A6958FEF811D811D0895AE
:1022900097F99F6780E870E060E008959FEF80EC19
:1022A000089500240A9416161706180609060895BC
:1022B00000240A9412161306140605060895092E22
:1022C0000394000C11F4882352F0BB0F40F4BF2B91
:1022D00011F460FF04C06F5F7F4F8F4F9F4F0895D1
:1022E00057FD9058440F551F59F05F3F71F04795C7
:1022F000880F97FB991F61F09F3F79F087950895AC
:10230000121613061406551FF2CF4695F1DF08C0CA
:10231000161617061806991FF1CF869571056105E7
:1023200008940895E894BB2766277727CB0197F98F
:1023300008958ADF08F48FEF08950BD0C0CFB1DF86
:1023400028F0B6DF18F0952309F0A2CFA7CF11240B
:10235000EACFC6DFA0F3959FD1F3950F50E0551F4C
:10236000629FF001729FBB27F00DB11D639FAA27EA
:10237000F00DB11DAA1F649F6627B00DA11D661F39
:10238000829F2227B00DA11D621F739FB00DA11D5A
:10239000621F839FA00D611D221F749F3327A00D14
:1023A000611D231F849F600D211D822F762F6A2FB0
:1023B00011249F5750408AF0E1F088234AF0EE0F35
:1023C000FF1FBB1F661F771F881F91505040A9F742
:1023D0009E3F510570F05CCFA6CF5F3FECF3983E77
:1023E000DCF3869577956795B795F795E7959F5FA9
:1023F000C1F7FE2B880F911D9695879597F9089543
:10240000629FD001739FF001829FE00DF11D649FD8
:10241000E00DF11D929FF00D839FF00D749FF00D64
:10242000659FF00D9927729FB00DE11DF91F639F05
:10243000B00DE11DF91FBD01CF011124089597FBD7
:10244000092E07260AD077FD04D049D006D00020F7
:102450001AF4709561957F4F0895F6F790958195E0
:102460009F4F0895A1E21A2EAA1BBB1BFD010DC0B0
:10247000AA1FBB1FEE1FFF1FA217B307E407F50734
:1024800020F0A21BB30BE40BF50B661F771F881F10
:10249000991F1A9469F760957095809590959B01A6
:1024A000AC01BD01CF01089597FB092E05260ED082
:1024B00057FD04D0D7DF0AD0001C38F45095409562
:1024C000309521953F4F4F4F5F4F0895F6F7909508
:1024D0008095709561957F4F8F4F9F4F0895AA1BF0
:1024E000BB1B51E107C0AA1FBB1FA617B70710F0FF
:1024F000A61BB70B881F991F5A95A9F78095909531
:10250000BC01CD010895EE0FFF1F0590F491E02D61
:062510000994F894FFCFCE
:10251600010049033600FF006B00D100A000B8009F
:10252600D500A6000A0199003F018E0074018400BF
:10253600A9017C00DE01740013026C0048026500EC
:102546007D025D00B2025600E7024E001C03460003
:1025560051033D0086033200BB032200F003030053
:10256600010064000A000100000000260C700C88BF
:022576000C0057
:00000001FF
